:02000000FE2BD5
:1007720003308316850086018312051006108F014F
:100782009001051CC52BC62BF52B01308F000030C4
:100792009000F52B061482308D00DD308C008C0B1E
:1007A200D02B8D0BD02BD52B8312061082308D00CF
:1007B200DD308C008C0BDB2B8D0BDB2BE02B8312C3
:1007C200051CE42BE52BF52B06108F01900102305E
:1007D2008E0004308D00BA308C008C0BEE2B8D0B0A
:1007E200EE2B8E0BEE2B000083120F031004031965
:0E07F200FB2BFC2BCB2BC22B00288301B92B39
:08400000FF3FFF3FFF3FFF3FC0
:02400E00FA3F77
:00000001FF
