:04000000F5EF1EF00A
:103DDD00486F6C61204D756E646F0A0D00DD0EF637
:103DED006E3D0EF76E000EF86E00EE24F010EE0D27
:103DFD00F00900F5CFEEFFE550E150FAE1000126A4
:103E0D00EF1FF019EF1FF0ACA20FEF1FF011EF1F16
:103E1D00F00AEF1FF001C0D9FF02C0DAFFDF50AD8D
:103E2D006E014A022A01C0D9FF02C0DAFFDF50D865
:103E3D00A423EF1FF025EF1FF00AEF1FF012000F64
:103E4D000EC112250E106E800E0F6E4CEC1FF02061
:103E5D00EE24F010EE17F00C0EDBCFE3FFE806FCBE
:103E6D00E2170E016E000E026E08EC1FF0030E1627
:103E7D006E8A0E156E560EE82EFED7152EFCD71631
:103E8D002EFAD72EEF1FF000EF00F0949C948E24A5
:103E9D000EAC6E900EAB6E000EB86EB886000E01B5
:103EAD006E090E026E3D0E036E000E046E0FC011F4
:103EBD00F010C012F0D89011361236D8901136127B
:103ECD003611C005F012C006F0076A086A7AEC1FB9
:103EDD00F0FF0E0124136EFF0E0220146E13C0AFFF
:103EED00FF1450B06E1200000E0A6E08BE83EF1F55
:103EFD00F081EF1FF08DEF1FF0081E071E061E0547
:103F0D006C000E062207220822010E0A6E04BE94D2
:103F1D00EF1FF092EF1FF09EEF1FF0041E031E0225
:103F2D001E016C000E022203220422010E0A1A0049
:103F3D000E0B6E000E0C6E000E0D6E000E0E6E054D
:103F4D0050061007100810D8B4AFEF1FF0B1EF1FD7
:103F5D00F0E7EF1FF0010E096EBBEF1FF0D89005D3
:103F6D0036063607360836092A08AEC0EF1FF0C2EE
:103F7D00EF1FF0B5EF1FF0D8900B360C360D360E47
:103F8D00360550015C06500258075003580850047E
:103F9D0058D8A0D4EF1FF0D6EF1FF0DFEF1FF005BC
:103FAD0050015E0650025A0750035A0850045A0B2E
:103FBD0080D8900832073206320532092EC2EF1F23
:103FCD00F00A50D8B4EDEF1FF0EFEF1FF0F7EF1F31
:103FDD00F00E1E0D1E0C1E0B6C000E0C220D220E73
:103FED00220BC001F00CC002F00DC003F00EC00496
:033FFD00F01200BF
:020000040020DA
:08000000FFFFFFFFFFFFFFFF00
:020000040030CA
:0E000000000E1F1EFF8080FF034003600340C0
:00000001FF
