:04000000A8EF1FF056
:103F50000001ABEF1FF00F0EC112010E926E000EAA
:103F6000936E000E036E000E026E80A0BAEF1FF07B
:103F7000BCEF1FF0CEEF1FF080B0C1EF1FF0C3EF1A
:103F80001FF0BCEF1FF0C30E016ECD0EE82EFED762
:103F9000012EFCD700F08092B5EF1FF080B0D3EF78
:103FA0001FF0D5EF1FF0B5EF1FF080A0DAEF1FF084
:103FB000DCEF1FF0D5EF1FF0C30E016ECD0EE82E23
:103FC000FED7012EFCD700F08082024A032A03BEEE
:103FD000F3EF1FF0035009E1100E025CD8A0F3EFDD
:103FE0001FF0F5EF1FF0FAEF1FF0000E036E000E4A
:103FF000026EFF0002C081FFB5EF1FF000EF00F07E
:020000040020DA
:08000000FFFFFFFFFFFFFFFF00
:020000040030CA
:0E000000000A1F1FFF8285FF034003600340BC
:00000001FF
