:040000008CEF1FF072
:103EDE0081CF9286CCA4A08F808C88E0B1C2B0B87E
:103EEE00FAFA136E100E13647FEF1FF081EF1FF0BE
:103EFE0084EF1FF012508BEF1FF0010E1324D96EBA
:103F0E00DA6A000EDA22DF501200DE0EF66E3E0E78
:103F1E00F76E000EF86E00EE01F010EE12F00900D2
:103F2E00F5CFEEFFE550E150FAE11C6A000EF86E97
:103F3E000001A2EF1FF00F0EC112000E936E000EC5
:103F4E001B6E1BC014F0420EC7EC1FF0060E1A6E4D
:103F5E00130E196EAE0EE82EFED7192EFCD71A2EA2
:103F6E00FAD71B2A0F0E1B64BFEF1FF0C1EF1FF015
:103F7E00A8EF1FF0000E1B6EA8EF1FF000EF00F071
:103F8E00176E145078EC1FF0186EDEEF1FF018C08D
:103F9E0080FFFFEF1FF018C081FFFFEF1FF018C06A
:103FAE0082FFFFEF1FF018C084FFFFEF1FF01750C6
:103FBE00156E166A1650000AD8B4E8EF1FF0D2EF4D
:103FCE001FF01550410AD8B4CEEF1FF0030AD8B433
:103FDE00D2EF1FF0010AD8B4D6EF1FF0070AD8B4FB
:103FEE00FFEF1FF0010AD8B4DAEF1FF0D2EF1FF087
:023FFE001200AF
:020000040020DA
:08000000FFFFFFFFFFFFFFFF00
:020000040030CA
:0E000000000A191EFF8080FF034003600340CA
:00000001FF
