:04000000C2EF03F058
:1005000000486F6C61204D756E646F0A0D000A0023
:09051000410048004C004F0000BE
:10051A000F0EC112949C948E240EAC6E900EAB6E8C
:10052A00000EB86EB886250E126E800E116E000E81
:10053A00016E090E026E3D0E036E000E046E11C0AE
:10054A000FF012C010F0D8900F361036D8900F3630
:10055A0010360FC005F010C006F0076A086A3CECB6
:10056A0003F0FF0E01241F6EFF0E0220206E1FC033
:10057A00AFFF2050B06E120E136E050E146E160EDB
:10058A00156E050E166E140E176E050E186E100EE9
:10059A00196E050E1A6E0E0E1B6E050E1C6E0C0ED3
:1005AA001D6E050E1E6EACA2DDEF02F0DFEF02F04B
:1005BA00D8EF02F013C0F6FF14C0F7FF0800F5CF1A
:1005CA00ADFFACA2EBEF02F0EDEF02F0E6EF02F0C6
:1005DA0015C0F6FF16C0F7FF0800F5CFADFFACA2B5
:1005EA00F9EF02F0FBEF02F0F4EF02F017C0F6FFAA
:1005FA0018C0F7FF0800F5CFADFFACA207EF03F074
:10060A0009EF03F002EF03F019C0F6FF1AC0F7FF73
:10061A000800F5CFADFFACA215EF03F017EF03F01A
:10062A0010EF03F01BC0F6FF1CC0F7FF0800F5CF60
:10063A00ADFFACA223EF03F025EF03F01EEF03F0AA
:10064A001DC0F6FF1EC0F7FF0800F5CFADFF020E72
:10065A00106E040E0F6EBA0EE82EFED70F2EFCD7C0
:10066A00102EFAD700D0D8EF02F000EF00F0000EFB
:10067A000A6E08BE45EF03F043EF03F04FEF03F0B5
:10068A00081E071E061E056C000E062207220822F7
:10069A00010E0A6E04BE56EF03F054EF03F060EF4A
:1006AA0003F0041E031E021E016C000E0222032226
:1006BA000422010E0A1A000E0B6E000E0C6E000EBA
:1006CA000D6E000E0E6E0550061007100810D8B4F5
:1006DA0071EF03F073EF03F0A9EF03F0010E096E57
:1006EA007DEF03F0D8900536063607360836092A14
:1006FA0008AE82EF03F084EF03F077EF03F0D890AF
:10070A000B360C360D360E360550015C0650025873
:10071A000750035808500458D8A096EF03F098EFF2
:10072A0003F0A1EF03F00550015E0650025A07508C
:10073A00035A0850045A0B80D890083207320632FE
:10074A000532092E84EF03F00A50D8B4AFEF03F054
:10075A00B1EF03F0B9EF03F00E1E0D1E0C1E0B6C69
:10076A00000E0C220D220E220BC001F00CC002F06A
:10077A000DC003F00EC004F01200000EF86E050E54
:08078A00F76E00018DEF02F093
:020000040020DA
:08000000FFFFFFFFFFFFFFFF00
:020000040030CA
:0E00000000021F1EFF8084FF034003600340C8
:00000001FF
