:0400000045EF05F0D3
:1008000000656C206D6F64656C6F206465205049D5
:10081000432064656C20677275706F20657320508B
:10082000494320313866343535300A0D656C207007
:10083000696E206465207472616E736D697369F30B
:100840006E2064656C2070696320657320524336A6
:100850002870696E203235290A0D656C2070696E2A
:1008600020646520726563657063696F6E206465DE
:100870006C20706963206573205243372870696E5D
:10088000203236290A0D204D6F646F206465207375
:10089000696E63726F6E697A616369F36E205541A8
:1008A00052543A200A0D0000000E0A6E08BE5DEF99
:1008B00004F05BEF04F067EF04F0081E071E061E4D
:1008C000056C000E062207220822010E0A6E04BEE5
:1008D0006EEF04F06CEF04F078EF04F0041E031EDA
:1008E000021E016C000E022203220422010E0A1ACB
:1008F000000E0B6E000E0C6E000E0D6E000E0E6ED6
:100900000550061007100810D8B489EF04F08BEFDB
:1009100004F0C1EF04F0010E096E95EF04F0D890D9
:100920000536063607360836092A08AE9AEF04F06F
:100930009CEF04F08FEF04F0D8900B360C360D3698
:100940000E360550015C06500258075003580850F7
:100950000458D8A0AEEF04F0B0EF04F0B9EF04F003
:100960000550015E0650025A0750035A0850045AB7
:100970000B80D8900832073206320532092E9CEFE0
:1009800004F00A50D8B4C7EF04F0C9EF04F0D1EF77
:1009900004F00E1E0D1E0C1E0B6C000E0C220D2200
:1009A0000E220BC001F00CC002F00DC003F00EC00F
:1009B00004F01200949C948E240EAC6E900EAB6EDC
:1009C000000EB86EB886000E016E090E026E3D0E66
:1009D000036E000E046E0FC011F010C012F0D8901C
:1009E00011361236D8901136123611C005F012C0E9
:1009F00006F0076A086A54EC04F0FF0E0124136E37
:100A0000FF0E0220146E13C0AFFF1450B06E120020
:100A10001AEF05F0ACA20FEF05F011EF05F00AEFA9
:100A200005F001C0F6FF02C0F7FF0800F5CFADFFEB
:100A3000014A022A01C0F6FF02C0F7FF0800F55084
:100A40000009D8A426EF05F028EF05F00AEF05F01D
:100A500012000F0EC112070E166E170E156E6A0EDB
:100A6000E82EFED7152EFCD7162EFAD700D0010E91
:100A7000016E080E026E08EC05F0250E106E800E59
:100A80000F6EDAEC04F000EF00F0000EF86E080EC6
:080A9000F76E000129EF05F0EB
:020000040020DA
:08000000FFFFFFFFFFFFFFFF00
:020000040030CA
:0E000000000A8F1FFF8385FF0FC00FE00F4027
:00000001FF
